:100000000C9414010C9431010C9431010C943101C5
:100010000C9431010C9431010C9431010C94310198
:100020000C9431010C9431010C94541B0C94271C3A
:100030000C9471160C9431010C9431010C94310123
:100040000C9431010C9431010C9431010C94310168
:100050000C9431010C9409170C9431010C9431016A
:100060000C9431010C9431010C9431010C94310148
:100070000C9431010C9431010C9431010C94310138
:100080000C9431010C9431010C9431010C94310128
:100090000C9431010C9431010C9431010C94310118
:1000A0000C9431010C9431010C9431011E001F009D
:1000B0002000210022002300240025000A034F0015
:1000C0004D0050003800000012034A0044006F0049
:1000D0006D0069006E0069006300000004030904FC
:1000E00009023B00020100A0FA090400000103011B
:1000F00001000921110100012244000705810308C4
:1001000000010904010001030000000921110100A0
:100110000122B6000705820320000112010002003F
:10012000000008EDFE0000000101020001050109C8
:1001300002A10185020901A100050919012908157B
:100140000025019508750181020501093009311565
:1001500081257F95027508810609381581257F95CF
:100160000175088106050C0A38021581257F950165
:1001700075088106C0C005010980A1018503190128
:100180002AB700150126B700950175108100C0053A
:100190000C0901A101850419012AA002150126A05C
:1001A00002950175108100C005010906A1018506AF
:1001B000050719E029E71500250195087501810259
:1001C0000507190029EF1500250195F07501810239
:1001D0000508190129059505750191029501750319
:1001E0009101C005010906A101050719E029E715DC
:1001F00000250195087501810295017508810105A9
:1002000007190029FF150026FF00950675088100D3
:1002100005081901290515002501950575019102AB
:10022000950175039101C00011241FBECFEFDAE0E4
:10023000DEBFCDBF11E0A0E0B1E0E4EEFDE302C01F
:1002400005900D92AC38B107D9F722E0ACE8B1E0E7
:1002500001C01D92AE38B207E1F70E9426100C943F
:100260009F1E0C940000842B81110BC0683048F451
:10027000E62FF0E0EE0FFF1FE455FF4F85919491BC
:10028000089581E090E008950E943301089581E08F
:1002900008950E944701089581E008950E94470152
:1002A00008950E944E01089508950E9454010895F2
:1002B000A6E0B0E0EEE5F1E00C94FB1D49835A8323
:1002C0009E833091930189819A8131111AC03E81B8
:1002D000332399F0222389F00E94F506182F682F06
:1002E00089819A810E94DB0669817A81812F0E942F
:1002F000C00D2696E3E00C94171E0E94E806182F06
:10030000F3CF0E94F50669817A81F1CFFC01262F97
:100310004081518162817381848195810E9458015D
:100320000895CF93DF93D82FC92F61E00E948601F3
:100330006D2F7C2F0E944901DF91CF910895CF93BB
:10034000DF93D82FC92F60E00E9486016D2F7C2F8C
:100350000E945501DF91CF91089581E008950E9498
:10036000AD010895CF93C82F0E94AD058C2F0E9438
:10037000AF012FEF84E39CE0215080409040E1F7F3
:1003800000C00000CF91089581E00E94B2010E9458
:100390002D17089580E00E94B2010E943E17089533
:1003A0000F931F93CF93DF938C0161E00E9486012E
:1003B000EC01B8010E9451018823B1F1B801CE01CE
:1003C0000E944414882381F1B801CE010E94631079
:1003D000882351F1B801CE010E943810882321F101
:1003E000F8018581882381F0CA35FCE7DF0739F100
:1003F00078F4C130ECE7DE07F9F0C330FCE7DF0743
:10040000C9F0C115DC4771F0C8010E944C010DC054
:10041000CB35ECE7DE07B1F0CC35DC47A9F70E941D
:10042000290BF2CF0E94C40180E0DF91CF911F9190
:100430000F9108950E943B0B0E94CA01F5CF0E94C4
:10044000330BE2CF0E94370BDFCF0E944E160E9483
:100450004C0208950E9450020E9453160895089578
:1004600081E008950895CF93DF93D82F0E94300242
:10047000C82F882319F08D2F0E9432028C2FDF9114
:10048000CF9108950895CF93C82F0E942F028C2FEB
:100490000E943302CF91089580E00E9443020895A4
:1004A0000E948A140E9443020895CF930E948A14E6
:1004B000C82F80918E018C1779F0C0938E010E9415
:1004C000DD1660938F01709390018093910190935A
:1004D00092018C2F0E944302CF910895ADE0B0E0CD
:1004E000E4E7F2E00C94FC1D488759876A877B8714
:1004F0008C879D8791110E94340A1F8286E0FE013D
:100500003896DE01119601900D928A95E1F78D8162
:1005100081110DC029813A814B815C816D817E8181
:100520008F810E947A092D96E2E00C94181ECE016C
:1005300001960E9491018111EDCFF5CFFC018481DC
:10054000813021F4808191810E94270708956623DC
:1005500029F00E94D1110E94A71208950E942F1223
:10056000FACFCF93C82F882399F08CEF8C0F813A64
:1005700088F48C2F0E942D15882329F08C2F0E943F
:10058000D2150E94CC0A8C2F0E94BB150E94CC0A67
:10059000CF91089580E28C0F883048F4C77081E0D5
:1005A00001C0880FCA95EAF70E94150AEFCF8BE5C4
:1005B0008C0F833038F42C2F2452330BC9010E9446
:1005C000C014E6CFE8E5EC0FEB3150F4F0E0EE0FAD
:1005D000FF1FE95EFE4F808191810E94E614D8CF13
:1005E00083E38C0F8331A0F661E08C2F0E94A70279
:1005F000CFCF882381F19CEF980F913A28F40E9485
:10060000D2150E94CC0A089590E2980F983050F4C9
:10061000877091E001C0990F8A95EAF7892F0E94AF
:100620001B0AEFCF9BE5980F933028F480E090E011
:100630000E94C014089598E5980F9B3128F480E03B
:1006400090E00E94E614089593E3980F933118F414
:1006500060E00E94A70208951F93CF93DF93182FA5
:10066000EB010E94B102209739F4812F0E94F90218
:10067000DF91CF911F9108958FE99FE00197F1F7E6
:1006800000C000002197EFCF60E070E0893311F4E3
:1006900060E570E00E942C030895882321F00E94F9
:1006A000150A0E94CC0A0895882321F00E941B0A93
:1006B0000E94CC0A0895A0E0B0E0E1E6F3E00C94DB
:1006C000F61D6C01D62FC72FFC01158106810295FE
:1006D0000F700E940A0AE82E8823F9F0E12E1123F8
:1006E000E1F08C2F807F803461F080E28D0F8830C4
:1006F000F0F08C2F807E803221F4D230C0F00023C5
:10070000B1F080916C0282FF12C082E00E94FC0A6C
:100710000E940A0A91E0E82EE926EC2FE295EF709C
:10072000C03CB0F5F0E0EF55F14E0C94E61DE12C25
:10073000F4CF0C2F0F70C03110F00295007F112301
:1007400099F0002359F080E28D0F883010F0D1111C
:1007500007C0802F0E94150A0E94CC0A8D2F51C01D
:10076000802F0E94260AF8CF8D2F0E94F9020023C5
:1007700079F080E28D0F883010F0D11104C0802F05
:100780000E941B0A03C0802F0E942C0A0E94CC0AE0
:10079000EE2089F00E94060A80FD0DC0F601158248
:1007A0000E94000A0E943806C6010E9474050E9439
:1007B000000A0E944806CDB7DEB7E8E00C94121E8E
:1007C000FC2FFF70FF2EC07FC03219F0F29480EF33
:1007D000F822DD2341F0D130D1F1112309F444C0D6
:1007E0000023F1F0BBCF80916C0282FD15C0112374
:1007F00059F0FF2029F08F2D0E94150A0E94CC0A83
:1008000080E00E94B102C4CF80E00E94F902FF2084
:1008100009F4BECF8F2DB4CF112369F0011104C0AC
:100820008F2D0E944D03B4CF013009F0B1CF8F2D31
:100830000E944C0AADCF0111ABCF8F2D0E94540303
:100840008F2D0E94580A8F2D0E943B0AA1CF1123A1
:1008500021F0063008F09CCFE3CF053008F098CFA8
:100860008F2D0E94540394CF0023D1F3D93349F440
:100870002FEF87EE93E0215080409040E1F700C0D9
:1008800000008D2F0E94F90283CF8C2F86958695CC
:100890008370882369F0813009F07ACF8D2F9C2FE7
:1008A0009370111102C080E090E00E94E61470CFB6
:1008B0008D2F9C2F9370111102C080E090E00E9458
:1008C000C01466CF612F8D2F0E94A70261CF8C2F9D
:1008D0008370811139C0111129C04D2F4295469561
:1008E0004770440F440F2D2F2F7030E0042E02C0AC
:1008F000220F331F0A94E2F780E090E0D4FF09C092
:100900008FE090E002C0880F991F4A95E2F780952A
:100910009095C695C695C370822B932BC23071F00B
:10092000C33079F0C13039F00E9408060E948A1461
:100930000E9443022DCF0E94FF05F8CF0E941106AE
:10094000F5CF0E94FC05F2CF112361F1C0FFEECF7D
:100950004D2F429546954770440F440F2D2F2F7011
:1009600030E0042E02C0220F331F0A94E2F780E029
:1009700090E0D4FF09C08FE090E002C0880F991F7B
:100980004A95E2F780959095C695C695C370822BDF
:10099000932BC23069F0C33071F0C13031F00E9446
:1009A0007306C4CF823010F2D3CF0E946A06BECF46
:1009B0000E947C06BBCF0E942006B8CFCF701123C7
:1009C00039F08C2F0E9438068D2F0E944D03AECF38
:1009D0008D2F0E9454038C2F0E944806A7CFD23F30
:1009E00031F170F4D03FB9F0D13FB1F1112309F4E6
:1009F00051C0002309F44BC08D2F0E94B10296CF45
:100A0000D33FE1F0D43F21F11111F3CF011150C0D8
:100A10008C2F8F71E1CF112341F0053008F086CF84
:100A20008C2F8F710E945A0681CF0530F7CF8C2F03
:100A30008F711111D1CF0E94380678CF112329F080
:100A40008C2F8F710E942C0671CF0E9427066ECFCB
:100A500080916C0282FD06C08C2F8F71112309F4E6
:100A6000BBCFE9CF112349F0CF718C2F0E943806FC
:100A700063E08C2F0E94DE0A59CF81E00E94FC0ABD
:100A8000023008F453CF82E00E94FC0A4FCF8C2F33
:100A90008F71D1CF002309F4BBCFD93349F4EFEFE5
:100AA000F7EE23E0E150F0402040E1F700C0000005
:100AB0008D2F0E94F9023ACF0F931F93CF93DF93AC
:100AC000EC01688179818D810E9434078C010E943C
:100AD00085060E94FB05B801CE010E945B03DF91F1
:100AE000CF911F910F910895CF93DF93EC018C81EB
:100AF000882399F0CE010E94D001811111C00E947B
:100B00000A0A882351F08D81882339F080916C0284
:100B100082FF03C082E00E94FC0ADF91CF9108951A
:100B2000CE010E945C05CE010E949F01F6CF80E0BD
:100B300090E00E94C01480E090E00E94E6140E94C1
:100B4000340A0E94CC0A0E94C4120E94A71208957F
:100B50000E94E9150E94970508950E94230A0E94A9
:100B6000A8050895282F92959F70963091F060F413
:100B7000925F9F70923030F481E0203F79F030F442
:100B8000283E30F080E008959A5FF3CF243FD1F7FC
:100B9000089581E0283EE0F3213FF9CF0895FC015C
:100BA0008481882339F0808191810E9427070E94E7
:100BB000B205089580E00895A6E0B0E0E2EEF5E029
:100BC0000C94FC1D2696E2E00C94181EA7E0B0E001
:100BD000ECEEF5E00C94FC1D2796E2E00C94181E58
:100BE00008950E94F00508950E94F10590939B01DD
:100BF00080939A01089508950E94F4050895209124
:100C00009A0130919B01822B932B0E94F405089549
:100C100020919A0130919B01822393230E94F40535
:100C2000089520919A0130919B01822793270E9479
:100C3000F40508950E94F00508950E941A0608958B
:100C40000E941D069093990180939801089580E079
:100C500090E00E942006089521E030E0A90102C042
:100C6000440F551F8A95E2F7CA010E942006089595
:100C700021E030E002C0220F331F8A95E2F7809115
:100C8000980190919901822B932B0E942006089540
:100C900021E030E002C0220F331F8A95E2F7209551
:100CA00030958091980190919901822393230E941D
:100CB0002006089521E030E002C0220F331F8A95FC
:100CC000E2F78091980190919901822793270E94E1
:100CD000200608952091980130919901822B932B41
:100CE0000E94200608952091980130919901822355
:100CF00093230E9420060895209198013091990134
:100D0000822793270E942006089508959B0167700B
:100D100091E001C0990F6A95EAF763E0369527954F
:100D20006A95E1F7220F331F220F331FFA01E20FFA
:100D3000F31F40E050E0682F70E08191DF011197D0
:100D40009B01042E02C0369527950A94E2F7217084
:100D500021952827292328272C934F5F5F4F443064
:100D6000510559F708959C01982F977083E03695A7
:100D700027958A95E1F7220F331F220F331FFB01BE
:100D8000E20FF31F40E050E080E0219130E0092EB7
:100D900002C0369527950A94E2F721703327042E76
:100DA00001C0220F0A94EAF7822B4F5F5F4F443055
:100DB000510559F70895282F862F983040F42111B6
:100DC00006C0692F70E044E951E00E94860608954C
:100DD000983048F4811107C064E971E0892F90E0F0
:100DE0000E94B306089580E00895A0E0B0E0EBEF24
:100DF000F6E00C94F51D8C01E0909801F0909901BB
:100E000080919A0190919B01E82AF92ACFE0D0E0E5
:100E1000CC24C394D12CC6010C2E02C0880F991F7C
:100E20000A94E2F78E219F21892B49F4219798F7A4
:100E3000B12C8B2DCDB7DEB7E9E00C94111EBC2E82
:100E4000B8018C2F0E94CD0D019781F3F2CFCF9383
:100E5000DF93D82FC92F0E94F5066D2F7C2F0E949B
:100E6000CD0DDF91CF9108951F93CF93DF93162F70
:100E7000D72F90919301992341F0862F972F0E94AD
:100E80002707DF91CF911F910895882381F0862F46
:100E9000972F0E94F506C82F682F812F9D2F0E9443
:100EA000DB06612F7D2F8C2F0E94CD0DEACF862F80
:100EB000972F0E94E806C82FF4CF0F931F93CF936C
:100EC000E0919C01C7E080919D018E1304C0CF91F9
:100ED0001F910F9108950E2F10E0CE9FF001112465
:100EE000E256FE4F208131814281538164817581B8
:100EF00086810E94E605F8013196E770E4CF2091E3
:100F0000D6013091D7014091D8015091D90160911B
:100F1000DA017091DB018091DC010E94E605089501
:100F20008091DC01803178F48091DB01882359F0D5
:100F3000E0919C0120919D013091D7014091D60113
:100F400057E02E1301C008956E2F70E05E9FF001F0
:100F50001124DF01A256BE4F14968C91149788235A
:100F600061F111968C911197831327C08C91841392
:100F700024C015968C91159781111FC012968D91E2
:100F80009C91A091D801B091D9018A1B9B0B883C00
:100F9000910598F48091DC018F7080618093DC0171
:100FA000EC55FE4F80818F708061808386ED91E0EB
:100FB0000E9474050E945D070895FB013196E77059
:100FC000C0CFE0919C0190919D0127E0E91302C000
:100FD00080E00895AE2FB0E02E9FF0011124E2567C
:100FE000FE4F3181361306C03081381303C035817E
:100FF000341304C0FD013196E770E8CF81E0089515
:101000008F929F92AF92BF92DF92EF92FF920F93D7
:101010001F93CF93DF93CDB7DEB72D970FB6F8941C
:10102000DEBF0FBECDBF8C0186E0F801DE01189651
:1010300001900D928A95E1F7F801E080F580A28099
:10104000B380848196ED892E91E0992E9091DA01FA
:1010500091111BC0882309F4FCC0FF2009F43DC195
:10106000C8010E94CF05882309F437C187E0F80141
:10107000D40101900D928A95E1F7C4010E949E026D
:101080000E9490070E947F07E4C0D090DB0120916E
:10109000D8013091D901A501421B530BDD2009F481
:1010A000DBC0483C510508F0A6C0882309F4D1C034
:1010B0009091D70191808091DC01803108F06BC064
:1010C000991228C09091D6019E1124C0F1105DC0E4
:1010D0008F7080618093DC010E947F0786ED91E034
:1010E0000E9474058091DC01F8018683F12C8F2D1C
:1010F0002D960FB6F894DEBF0FBECDBFDF91CF9116
:101100001F910F91FF90EF90DF90BF90AF909F9055
:101110008F900895F11039C040E0692D8E2D0E9406
:10112000E10740E0692D8E2D0E94E107F82E811124
:10113000DDCF888599850E942707292F22952F705A
:10114000903450F49F70223080F0992399F0F80188
:101150009681903178F4CBCF2A5F2F70223078F0CF
:10116000C8010E947405FD2CC2CF992319F0882371
:1011700009F4BDCF805E883008F4B9CFF1CF803F4D
:1011800008F4B5CF815F8230F7CF8091DC018160B8
:101190008093DC01ABCF991207C09091D6019E11CC
:1011A00003C0FF2009F479C0C8010E94CF0588233D
:1011B00009F493C0FF2009F490C08091DC018032D3
:1011C00088F02091D6013091D7013A832983BC82DF
:1011D000AB829091DA019D831E828F83CE010196AE
:1011E0000E94740587E0F801A6EDB1E001900D9230
:1011F0008A95E1F745CF9091DC019031A0F44885C4
:1012000059856A857B858C859D850E94DC0586EDE8
:1012100091E00E94740587E0F40111928A95E9F744
:101220000E947F0763CF8823A1F02091D70181819D
:101230002813BACF8091D6018E11B6CFF110B4CF5A
:101240009683C8010E94740587E0F40111928A9583
:10125000E9F7FF24F3944BCF483C510508F041C017
:101260008823B9F3FF20C9F19091D70181819813A8
:101270002AC08091D6018E1126C08091DC0180FDAC
:1012800019C08031B8F08683807F803F39F0868135
:10129000982F907F905F8F70892B8683C8010E9462
:1012A000740587E0F801A6EDB1E001900D928A95F2
:1012B000E1F7E8CE87E0F801A6EDB1E001900D92EC
:1012C0008A95E1F7C6CFC8010E94CF0581118ACF68
:1012D0008091DC0181608093DC01C8010E9474056B
:1012E000B8CF488559856A857B858C859D850E9408
:1012F000DC0591CFAEE0B0E0E0E8F9E00C94FB1D36
:10130000288739874A875B876C877D878E87CE01E0
:1013100008960E9400088823B1F06C85662341F08E
:10132000288539854A855B857D858E850E94E60501
:1013300017E080919C0190919D0189133EC02E96EB
:10134000E3E00C94171E87E0FE013896DE0111964B
:1013500001900D928A95E1F720919D0140919C01A9
:101360008C85882329F330E0C9010196877099277D
:1013700050E08417950799F097E0929FD001939FD2
:10138000B00D1124A256BE4FFE01319601900D9270
:101390009A95E1F780939D010E945D07C9CF0E9455
:1013A000AD0510929D0110929C0187E0E6EDF1E001
:1013B000DF011D928A95E9F7BBCF189FC001112468
:1013C00082569E4F0E940008882309F4B8CFE0910E
:1013D0009C011E9FF0011124E256FE4F20813181B5
:1013E000428153816481758186810E94E6058091E6
:1013F0009C0190E001968770992780939C0199CF7A
:1014000080910502869586958695089580910502BE
:101410008770089590910502977081E0911101C045
:1014200080E0089580913102089590913102982BC7
:10143000909331020895982F9095809131028923DD
:1014400080933102089510923102089590913002F4
:10145000982B909330020895982F909580913002A8
:1014600089238093300208951092300208950895E0
:101470000E94370A089590910602292F28232223DB
:1014800031F080958923809306020E94380A0895DE
:1014900008950E94480A089590910702292F282351
:1014A000281729F0982B909307020E94490A089563
:1014B00090910702292F2823222331F08095892338
:1014C000809307020E94490A0895809107028823A9
:1014D00029F01092070280E00E94490A0895CF93F4
:1014E000DF93C091310280913002C82BD091070266
:1014F000DD2331F00E940C1581110E94650ACD2B6D
:101500008C2FDF91CF910895CF93DF93C09102018B
:10151000D09103010E946F0A8883C0910201D0918B
:10152000030148E050E06DEF71E0CE010E94371EEC
:10153000892B59F088E0FE01ADEFB1E001900D92EA
:101540008A95E1F7CE010E949714DF91CF9108951B
:10155000CF93DF93C0910001D09101010E946F0AE7
:101560008983C0910001D091010140E250E06DED0E
:1015700071E0CE010E94371E892B59F080E2FE01F6
:10158000ADEDB1E001900D928A95E1F7CE010E9498
:10159000A214DF91CF91089580911601882339F02C
:1015A00080916B0287FF03C00E94A80A08950E94E1
:1015B000840A089508950E94DA0A089590916C02B1
:1015C00092FF11C098E0899F90011124622B6093D3
:1015D00005020E94380680910502869586958695BB
:1015E0000E94DB0A08950E943806089510920502B1
:1015F00080E00E94DB0A089590910502809589237E
:1016000080930502282F277021110DC0891759F0EA
:1016100090916C0292FF07C08695869586950E94F0
:1016200048060E94F60A089590916C0292FB2227C8
:1016300020F9281769F080FB92F990936C02809151
:101640006B0290916C020E945C0B82E00E94FC0A8B
:10165000089580916C0282FB882780F991E08927A8
:101660000E94140B089581E00E94140B089580E0FD
:101670000E94140B08956FEF7FEF80E090E00E94CE
:10168000891E089580E090E00E94551E9C0181E033
:10169000263E3E4F09F080E0089582E090E00E94EF
:1016A0004D1E089583E090E00E944D1E089584E051
:1016B00090E00E94551E0895BC0184E090E00E94D5
:1016C000891E0895AB01BC018FE090E00E947D1E51
:1016D0000895AB01BC0183E190E00E947D1E089556
:1016E00060E070E0CB010E94690B089560E070E05B
:1016F000CB010E94620B0E94700B0895A8E0B0E03D
:10170000E4E8FBE00C94FC1D66EE7EEF80E090E0E8
:101710000E94891E60E082E090E00E946B1E81E0E2
:1017200090E090939B0180939A0161E083E090E0C8
:101730000E946B1E60E074E184E090E00E94891ECC
:1017400060E086E090E00E946B1E6FEF87E090E023
:101750000E946B1E40E050E0BA0188E090E00E94D9
:101760007D1E60E084E290E00E946B1E60E087E1F5
:1017700090E00E946B1E60E08CE090E00E946B1E87
:1017800060E08DE090E00E946B1E19821A821B823D
:101790001C821D821E821F82188648E050E068E18C
:1017A00070E0CE0101960E945B1E40E050E0BA015D
:1017B00080E290E00E947D1E0E94760B2896E2E077
:1017C0000C94181E0E947E0B0895682F8EE090E006
:1017D0000E946B1E0895A6E0B0E0E1EFFBE00C94E0
:1017E000FA1D0E94D1168C01809132029091330231
:1017F0008017910779F019821A820E94D116BC01D4
:1018000049815A8180E090E00E946E021093330279
:10181000009332022696E4E00C94161E0E94DD1618
:10182000609340027093410280934202909343027E
:1018300060933C0270933D0280933E0290933F027E
:101840000895089508950E94210C089508950E9416
:10185000260C089585EC9EE00E9433100E94220C15
:101860000E94230C089581E008950E94330C08958E
:101870000E94330C0895089508950E943B0C0E9425
:101880003C0C08950E94E40E0E94420208950E94BA
:10189000C8160E94840F0E94420C0E94270C0895D3
:1018A000A6E0B0E0E6E5FCE00C94F61D0E94350CE5
:1018B00081110AC00E94EB0B0E94E5120E945502A2
:1018C0002696E8E00C94121E0E949A0F84E3E82EFC
:1018D00082E0F82E670110E0F60101916F01812F7F
:1018E0000E940A0F1F5F1830D1F00817A9F38091EA
:1018F000440281FD0E94100F0E94380CD82E00E097
:10190000802F0E940A0F182FF70191917F018913F0
:1019100009C00F5F0830A1F70E940E0CCDCF08134D
:10192000E6CFC8CF982790FF0EC0DD2061F0198266
:101930000A830E94D116BC0149815A8181E0912F0E
:1019400091700E946E02F70131971083E2CF1F93CE
:10195000CF93DF930E94D20DEC01811522E592070F
:1019600008F053C0811540E5940708F0DDC0803EC3
:101970009105F8F48D3C910508F0AEC0883A9105C8
:1019800080F4853A910508F099C08130910521F0E5
:101990000497813A910550F4CE01DF91CF911F91C8
:1019A0000895885A91094B9708F48BC0C0E0D0E0A5
:1019B000F3CF811550E49507F8F4C11580E2D807FC
:1019C00008F0CBC0C83ED10538F3CE019A958115F9
:1019D0009F4160F78D2F0E94760E182FCE01992718
:1019E0000E94D20D212F30E0322F2227E901CC278F
:1019F000DF71C82BD92BD0CF99270E94D20DCC27CD
:101A0000DF70C82BD92BD06AC7CF803842E5940746
:101A1000C8F5803652E5950708F067C0C03482E506
:101A2000D807B0F08C2F86958695877020E2829F2C
:101A3000C0011124C37021E030E0A90102C0440FAD
:101A4000551FCA95E2F7EA01C82BD92BDC68A4CF51
:101A5000C03252E5D50708F041C08C2F8695869597
:101A600020E2829FC0011124C37021E030E0A9016F
:101A700002C0440F551FCA95E2F7EA01C82BD92BC3
:101A8000DD688ACF803C52E5950760F48F71C03ADB
:101A9000D24508F03FC090E0982F8827EC01C46F32
:101AA000D06A7ACF805C9245809708F07FCFDC2F98
:101AB000CC27CC27DF71C06FD06A6ECFA497D064DB
:101AC0006BCFC85AD0E0CC0FDD1FC35BDE4F09904F
:101AD000D881C02DD46460CFD0655ECFCF71D0E007
:101AE000DC2FCC27C16FD06A57CF8695869587703B
:101AF00020E2829FC0011124C37021E030E0A901DF
:101B000002C0440F551FCA95E2F7EA01C82BD92B32
:101B1000DA6842CF0E94760EC82FD0E0DC2FCC27A7
:101B2000CC27DF71D06238CF8F710E94760E65E0CE
:101B3000D695C7956A95E1F7CF70D0E0DC2FCC271A
:101B4000282F30E084FF05C054E0220F331F5A9540
:101B5000E1F7C22BD32BD0691FCF8D2F8F710E943D
:101B6000760E182FCE0199270E94D20D212F30E03A
:101B7000322F222722273F71282B392BE901D2CF80
:101B8000962F672F783030F4911104C040E00E9406
:101B90004401089580E090E008950E94C00D0E94E5
:101BA000A70C0895803E9105D1F1C8F481339105C9
:101BB00009F47FC048F48932910509F46FC08A3274
:101BC000910509F47DC0089589339105E1F08238CB
:101BD0009105C9F08533910509F45BC00895843EF1
:101BE0009105D1F148F4823E910531F1833E910592
:101BF00041F181EE90E00895863E9105C1F1873E66
:101C00009105E1F1089520916B022370211165C0C7
:101C100020916C0223FF14C089E290E00895209186
:101C20006B0220FD43C030916C0230FF09C024FFDD
:101C30004EC080E090E0089520916B0222FDF7CF26
:101C4000089520916B0222FD45C030916C0230FD59
:101C500044C024FFF5CFEDCF20916C0221FFF0CFDF
:101C600080916B0284FDE5CF87EE90E0089520918E
:101C70006B0223FFE5CF24FDDCCFF6CF20916B0272
:101C800023FD2EC030916C0231FFE3CF84EE90E053
:101C9000089520916B0225FFD3CFBECF20916B0218
:101CA00025FD21C020916C0223FFCACF89E390E07B
:101CB000089520916B0226FFC3CF8AE290E0089539
:101CC00020916B0226FFBCCF81E390E0089583EE64
:101CD00090E0089582EE90E0089580EE90E00895FF
:101CE00086EE90E0089585E390E0AACF90916B0294
:101CF00092FF10C041E0282F2471243009F040E009
:101D000031E0282F2871283009F030E0431711F016
:101D10002CE0822793FF10C041E0282F247124314A
:101D200009F040E031E0282F2871283109F030E037
:101D3000431711F02CE0822730916C0230FF10C065
:101D400051E0282F2171213009F050E041E0282F87
:101D50002871283009F040E0541711F029E082275B
:101D600031FF10C041E0282F2171213109F040E0FE
:101D700031E0282F2871283109F030E0431711F0A5
:101D800029E0822794FD877E089580E008950E94CF
:101D90003B0B08950E949A0F2FEF86E791E02150A8
:101DA00080409040E1F700C000000E949A0F80E060
:101DB0000E940A0F80FF04C00E94C70E0E942D17C8
:101DC00008950E94CA0E08950E94420B811102C01C
:101DD0000E94E20B0E944D0B809344020E94570B1D
:101DE00090936C0280936B020E94E10E0E94520B52
:101DF00090E00E94FC0580919801909199010E94C9
:101E00001D06089508950E94020F089508950E94E6
:101E1000060F0895E82FF0E0EB58FD4F80810895FC
:101E2000089580EA8A95F1F7089500C008950E9408
:101E3000110F0895F894E82FE295EF70F0E041A1BA
:101E40008F7021E030E0B90102C0660F771F8A95DC
:101E5000E2F7CB01962F9095942391A392A1892B21
:101E600082A378940895CF93DF93C3E8D1E089915A
:101E70008F3F11F00E941A0F81E0CB38D807B9F7D5
:101E800085E30E941A0FDF91CF910895A0E0B0E0A2
:101E9000ECE4FFE00C94F71D8C01D62FE62EF12C1C
:101EA000F701ED57FE4FD0808FEFD81641F1F8942F
:101EB000ED2DE295EF70F0E081A19D2D9F7021E066
:101EC00030E001C0220F9A95EAF7822B81A382A10C
:101ED0002095282322A378940E94150FC3B1C5FB37
:101EE000CC27C0F981E0C8278D2D0E941A0F6C2FD6
:101EF0008D2F0E94170FF801EE0DFF1DC083CDB787
:101F0000DEB7E7E00C94131E0E94330F88E0E5E78C
:101F1000F2E0DF01982F1D929A95E9F7EDE6F2E0E5
:101F2000DF011D928A95E9F788E00E94D80F0E9490
:101F3000030F0895A8E0B0E0E0EAFFE00C94F91D7B
:101F40001A821982FE01339686E0DF011D928A957E
:101F5000E9F7F12C8E010F5F1F4F6F2DC8010E9412
:101F6000460FF394B8E0FB12F8CF48E050E0B80118
:101F70008DE692E00E94371E21E0892B81F420E05B
:101F800048E065E772E08DE692E00E94D90F182FD5
:101F90000E94070F812F2896E5E00C94151E88E01B
:101FA000F801ADE6B2E001900D928A95E1F7E8CF35
:101FB0000895A0E0B0E0EFEDFFE00C94F61DD82E00
:101FC000E92EF62ED72F042FC22F222379F081E09D
:101FD000809347020E94D116909346028093450257
:101FE00080E0CDB7DEB7E8E00C94121EC090470247
:101FF000CC20B1F380914502909146020E94FA16DE
:10200000059770F310E0A8016D2D7E2D8F2D9D2F6B
:102010000E94371E892B41F0A8016D2D7E2D8F2D3A
:102020009D2F0E94441ECC2D109247028C2FD9CF99
:102030000E94AC180E94470C0E94B91808950E9493
:10204000BE180E94500C0E94D81808950E946A166B
:102050000E9492180E942A0C0E9418100E941F10C1
:102060000E943D0CFBCF90938D0180938C010895CD
:10207000CF93DF93EB0186319C4719F50E94120A3A
:102080009D819923A1F08A7A91E0811101C090E0AD
:1020900090934802882349F085E30E94BB150E9473
:1020A000CC0A80E0DF91CF91089589E2F6CF80914C
:1020B0004802882321F085E30E94D215F0CF89E2FF
:1020C000FBCF81E0EFCFCF93DF93EC01FB01858164
:1020D000882309F4D2C09E0130572332310508F01D
:1020E000B2C00E94570B90936C0280936B02FE016A
:1020F000E150F047E232F10520F4E355F14E0C9443
:10210000E61D80916B02816080936B0293C0809189
:102110006C02886080936C028DC080916B0282603B
:10212000F3CF80916B028460EFCF80916B02886067
:10213000EBCF80916C028160EDCF80916C02826068
:10214000E9CF80916B028061DFCF80916B0280626A
:10215000DBCF80916B028064D7CF0E94AD05809168
:102160006B028068D1CF80916B028C60CDCF809163
:102170006C028360CFCF80916B028E7FC5CF809140
:102180006C02877FC7CF80916B028D7FBDCF80911E
:102190006B028B7FB9CF80916B02877FB5CF809127
:1021A0006C028E7FB7CF80916C028D7FB3CF809110
:1021B0006B028F7EA9CF80916B028F7DA5CF80911E
:1021C0006B028F7BA1CF0E94AD0580916B028F7750
:1021D0009BCF80916B02837F97CF80916C028C7F25
:1021E00099CF80916B0282FB992790F921E0922789
:1021F00090FB82F990FB83F987CF80916C02982F36
:10220000909591708E7F892B90FB81F983CF90916F
:102210006B02892F8F7B96FF806476CF0E94AD057D
:1022200090916B02892F97FB87F980586DCF81E0E1
:102230000E94E50B80916B0290916C020E945C0BF6
:102240000E94AD0580E0DF91CF91089580E0F0CF4E
:1022500090916B02892F8F7E94FF806155CF909172
:102260006B02892F8E7F90FF81604ECF90916C0220
:10227000892F877F93FF88604DCF81E0E4CF282F9F
:1022800035EB2303C001112497FF04C08058910946
:10229000892F089580589F4FFBCF80914F0280FF78
:1022A0000DC06091090170E0660F771F60387105FD
:1022B000C0F561157105B9F1862F089581FF07C03A
:1022C0006091090184E0689FB0011124EFCF82FF83
:1022D00004C06091090188E0F6CF80914E02882306
:1022E000E9F0909108016091090170E0891730F0E0
:1022F00093E0660F771F9A95E1F7D8CF869F9001FC
:10230000879F300D112483E0220F331F8A95E1F758
:10231000692F70E0C9010E94D21DC8CF68E070E04B
:10232000CBCF8FE7089581E0089580914F0280FF21
:102330000CC06091050170E075956795759567957E
:102340006115710561F1862F089581FF06C06091C6
:10235000050170E075956795F3CF6091050170E018
:1023600082FD15C020914D022223B1F0909104010D
:102370006091050170E0291750F4269FA001279F66
:10238000500D1124692F70E0CA010E94D21D6038DF
:102390007105B0F28FE7089561E070E0D4CF81E07D
:1023A00008959091520220915302922B2091550250
:1023B000922B20915402922B992331F098E0909324
:1023C0004E0291E090934D028D3C31F40E944D11EC
:1023D0008195809353020895E2E3E80FE231B0F56E
:1023E000F0E0E153F14E0C94E61D0E944D11F1CF47
:1023F0000E944D1181958093520208950E944D11C3
:10240000FACF0E9495118093540208950E9495116D
:102410008195F9CF0E949511819580935502089579
:102420000E949511FACF815D990B21E030E001C047
:10243000220F8A95EAF780915102822B80935102F4
:10244000089580914F02816080934F02089580919A
:102450004F028260F9CF80914F028460F5CF4091A6
:1024600052028D3C59F48091530287FF0DC01092A7
:102470005302442359F410924E0208C08E3C81F45A
:102480008091530218169CF3442381F080915402EA
:1024900090915502892B811159C010924D020895D7
:1024A0008F3C41F447FFF0CF1092520280915302CB
:1024B0008823E0CF803D19F41416B4F3E5CF909152
:1024C0005402893D29F41916FCF610925402DCCF0F
:1024D0008A3D19F497FFD8CFF8CF909155028B3DE4
:1024E00029F497FFD1CF10925502CECF8C3D19F42D
:1024F0001916CCF3C9CF9FE2980F983090F4815D04
:10250000990B21E030E0B90102C0660F771F8A9570
:10251000E2F7CB018095909151028923809351027B
:10252000B3CF8D3D31F480914F028E7F80934F0267
:10253000ABCF8E3D21F480914F028D7FF7CF8F3D41
:1025400009F0A2CF80914F028B7FF0CF08950E94B7
:10255000D1162091520230915302232B222321F0D5
:1025600080934B0290934C0220915402309155027B
:10257000232B222321F08093490290934A0280E585
:1025800092E00E94B114089586E0E0E5F2E0DF01F8
:102590001D928A95E9F710924E0210924D02109208
:1025A0004F020895FC01828181110DC08381811148
:1025B0000AC08481811107C081E09581911101C019
:1025C00080E08170089581E0FCCFA6E0B0E0EBEE02
:1025D000F2E10C94F91D86E0E0E5F2E09E012F5F48
:1025E0003F4FD90101900D928A95E1F71092520266
:1025F0001092530210925402109255028B819C81CA
:10260000892B8901882391F080914B0290914C0293
:102610000E94FA169C0180914E028823C9F14091D4
:102620000A0150E04217530708F43FC08D819E8194
:10263000892B882399F08091490290914A020E9447
:10264000FA169C0180914D02882309F467C04091DD
:10265000060150E04217530708F46EC0B80180E548
:1026600092E00E940316811105C080E592E00E946D
:10267000D21281110E94A71286E0F801A0E5B2E013
:1026800001900D928A95E1F72696E5E00C94151ECF
:1026900040910B019AE0499FA00111244217530772
:1026A00028F68F5F80934E0202C08F3FD1F7FB80E8
:1026B000FF2059F00E944D1191E01F140CF09FEF84
:1026C000899F802D112480935202FC80FF2059F0B5
:1026D0000E944D1191E01F140CF09FEF899F802DF7
:1026E00011248093530280915202882309F49ECFD3
:1026F000F0905302FF2009F499CF0E943F118111FD
:1027000001C081E0809352028F2D0E943F118823E7
:1027100019F0809353028ACF81E0FBCF40910701EB
:102720009AE0499FA00111244217530708F096CF61
:102730008F5F80934D0202C08F3FD1F7FD80FF2055
:1027400059F00E94951191E01F140CF09FEF899FA2
:10275000802D112480935402FE80FF2059F00E94A6
:10276000951191E01F140CF09FEF899F802D11248B
:102770008093550280915402882309F46FCFF09022
:102780005502FF2009F46ACF0E943F11811101C058
:1027900081E0809354028F2D0E943F11882319F00D
:1027A000809355025BCF81E0FBCF0F931F93CF93B4
:1027B000DF93C42FD22FFC0185818823C9F0409379
:1027C00058020E94D116909357028093560280E2DD
:1027D0008C0F883040F4C77081E001C0880FCA9523
:1027E000EAF70E944D03DF91CF911F910F91089559
:1027F0001091580214133CC08091560290915702D8
:102800000E94FA16883C910598F5C0E2CD0F1D177D
:1028100041F180E2810F883040F4177081E001C0FF
:10282000880F1A95EAF70E945403C83020F0802FD1
:102830000E944403D8CF91E08D2F877001C0990F7B
:102840008A95EAF7892F0E944D03802F0E94440346
:10285000D77081E001C0880FDA95EAF70E9454032F
:10286000C2CF802F0E944403C83008F0BCCFF0CF05
:1028700080E28C0F883008F0B6CFC77081E001C0CD
:10288000880FCA95EAF7EACF0F93FC01CB01E85114
:10289000FC47E730F10590F5EF51F14E0C94E61D41
:1028A00006E221EE41EE6AE17CE70E94D51380E06A
:1028B0000F91089507E225EE45EE6BE17CE7F5CF39
:1028C00006E221EE40EE68E17CE7EFCF07E225EE7D
:1028D00044EE69E17CE7E9CF06E221EE42EE6CE1ED
:1028E0007CE7E3CF07E225EE46EE6DE17CE7DDCF46
:1028F00008E221E045EE6EE17CE7D7CFFB01858160
:1029000081111092580281E0D3CF90935E028093A0
:102910005D020895E0915D02F0915E02309729F02A
:102920000190F081E02D0995089580E00895E091EF
:102930005D02F0915E02309721F00280F381E02D7C
:1029400009950895DC01E0915D02F0915E023097F7
:1029500039F086E08C930480F581E02DCD01099556
:102960000895DC01E0915D02F0915E02309739F04C
:1029700082E08C930680F781E02DCD0109950895C2
:10298000A3E0B0E0E6ECF4E10C94FC1D9C01809126
:102990005B0290915C0282179307A1F030935C0276
:1029A00020935B02E0915D02F0915E02309751F05E
:1029B00083E089833B832A830084F185E02DCE0167
:1029C000019609952396E2E00C94181EA3E0B0E06E
:1029D000ECEEF4E10C94FC1D9C0180915902909165
:1029E0005A0282179307A1F030935A02209359029A
:1029F000E0915D02F0915E02309751F084E08983AE
:102A00003B832A830084F185E02DCE010196099550
:102A10002396E2E00C94181E2091020130910301EC
:102A20002E5F3F4F809116018823A9F080916B02A1
:102A300087FF11C020910001309101012E5F3F4FAF
:102A40009DE180E0F90140812F5F3F4F41118F5F91
:102A50009150C0F7089595E0F4CF882321F190912B
:102A60001601992311F190916B0297FF1EC0982FC8
:102A7000969596959695803FB0F4E0910001F0917F
:102A80000101E90FF11D228130E0877041E050E043
:102A9000BA0102C0660F771F8A95E2F72623372313
:102AA00081E0232B91F480E0089520910201309180
:102AB0000301F9013296285F3F4F9191981721F059
:102AC000E217F307D1F7EFCF81E008959C01FC01F5
:102AD00032968FEF90E04191461751F08F3F19F4F5
:102AE000411101C0892F9F5F9630A9F78F3F09F4EC
:102AF0000895280F311D87FD3A95F90162830895E5
:102B00009C01FC013296285F3F4F8191861303C0E0
:102B1000DF0111971C92E217F307B9F70895FC0142
:102B2000862F869586958695603F60F4E80FF11DA7
:102B3000677021E030E001C0220F6A95EAF78281D8
:102B4000822B82830895FC01862F86958695869533
:102B5000603F80F4E80FF11D677081E090E09C0118
:102B600002C0220F331F6A95E2F7B9016095828196
:102B7000682362830895682F80911601882359F095
:102B800080916B0287FF07C0809100019091010145
:102B90000E948F15089580910201909103010E9477
:102BA00066150895682F80911601882359F0809149
:102BB0006B0287FF07C080910001909101010E9484
:102BC000A315089580910201909103010E94801540
:102BD000089580911601882379F080916B0287FF18
:102BE0000BC0E0910001F091010132968EE1DF010E
:102BF0001D928A95E9F70895E0910201F091030191
:102C0000329686E0F4CFDC01FB0111969C9111977E
:102C10008181981322C012968C911297882319F003
:102C2000928189131AC013968C911397882319F0F7
:102C30009381891312C015968C911597882319F0EA
:102C4000958189130AC014969C91992321F081E003
:102C50002481291303C080E001C081E081700895C0
:102C600008950E94301608958F5F80935F020E943E
:102C70003116089583E080935F020E943116089513
:102C80000E943416089581E080935F020E943116FD
:102C900008950E9443160895089508950E944D16C0
:102CA0000895089508950E944C160895CF930E94A8
:102CB00051160E949A0F0E945216C0E08C2F0E945B
:102CC0000A0F811105C0CF5FC830C1F7CF910895B9
:102CD00081E0FCCF85B7806885BF85B7806885BFF8
:102CE00008951F921FB61F9211248F939F93AF9345
:102CF000BF9380916002811113C080917D029091F9
:102D00007E02A0917F02B09180024196A11DB11D6B
:102D100080937D0290937E02A0937F02B093800205
:102D2000BF91AF919F918F911F901FBE1F901895DB
:102D300080918502843031F10E9425021092600258
:102D400088E190E020E40FB6F894A89580936000A5
:102D50000FBE2093600083B7817F846083BF83B7F9
:102D6000816083BF7894889583B78E7F83BF0FB6C9
:102D7000F894A8958091600088618093600010921B
:102D800060000FBE08950E94AD050E942A020895BA
:102D900082E084BD93E095BD9AEF97BD80936E006D
:102DA00008952FB7F89480917D0290917E02A091B2
:102DB0007F02B09180022FBF0895A4E0B0E0E3EE5F
:102DC000F6E10C94FC1D8FB7F89420917D023091B0
:102DD0007E0240917F025091800229833A834B8387
:102DE0005C838FBF69817A818B819C812496E2E02C
:102DF0000C94181E9C014FB7F89480917D0290911D
:102E00007E02A0917F02B09180024FBF821B930B84
:102E1000089578941F921FB61F9211248F939F9349
:102E2000AF93BF9380917D0290917E02A0917F022B
:102E3000B09180020196A11DB11D80937D029093F7
:102E40007E02A0937F02B0938002BF91AF919F91C9
:102E50008F911F901FBE1F90189587E797E790935B
:102E600001088093000888E19AE00FB6F894A895CD
:102E7000809360000FBE90936000FFCF88E19AE0DE
:102E80000FB6F894A895809360000FBE90936000F1
:102E9000FFCF809169020895282FCB01BA013091AC
:102EA00085023430E1F42F702093E9002FEF309148
:102EB000E80035FD07C035ED3A95F1F700002150E7
:102EC0002111F5CF2091E80025FF09C040E050E036
:102ED0000E9450198091E8008E778093E800089551
:102EE000BC0143E050E082E00E944C170895BC0111
:102EF00046E050E082E00E944C170895BC0140E299
:102F000050E082E00E944C170895CF93DF93D82FB2
:102F1000C92F48E050E0682F792F81E00E944C17BC
:102F200088E0ED2FFC2FA1E6B2E001900D928A958A
:102F3000E1F7DF91CF91089580918402811109C05A
:102F40000E94D81A0E94351B8091E2008460809311
:102F5000E20008951092840208950E944316089595
:102F60006091810281E0611101C080E00E943A1607
:102F700008959091850281E0943009F080E060919D
:102F800081020E944016089542E061EC81E00E94B7
:102F9000541A42E261EC82E00E94541A9091850238
:102FA00081E0943009F080E0609181020E94341643
:102FB000089580918702893089F148F4823009F4BC
:102FC000A0C0833009F45AC0813041F008958A309E
:102FD00009F487C08B3009F46CC008958091860293
:102FE000813A09F04AC08091E800877F8093E80029
:102FF00080918A0290918B02892B61F060E080E0E1
:1030000090E070E00E949F198091E8008B77809398
:10301000E800089568E081E692E0F3CF80918602AF
:10302000813259F580918A0290918B02029728F59E
:103030008091E800877F8093E8008091E80082FF1C
:1030400018C09091F3008091F200029731F48091C2
:10305000F100813011F0863021F48091F1008093ED
:1030600069028091E8008B778093E8000E94881ABB
:1030700004C0809185028111E0CF0895809186027D
:10308000813AD9F780918A0290918B02892BA9F716
:103090008091E800877F8093E8008091E80080FFBE
:1030A000FCCF809116018093F1008091E8008E772B
:1030B000DBCF80918602813201F780918A02909164
:1030C0008B02892BD1F68091E800877F8093E800FE
:1030D0000E94881A80918802809316010E94AD0593
:1030E000089580918602813241F68091E800877FC1
:1030F0008093E8000E94881A8091890280936A0276
:10310000089580918602813A09F0B7CF8091E80056
:10311000877F8093E8008091E80080FFFCCF80915A
:103120006A02C1CF84B7877F84BF0FB6F894A89591
:1031300080916000886180936000109260000FBEF3
:1031400080E890E00FB6F89480936100909361005E
:103150000FBE0E94491608950E94D81A0E94351B7E
:10316000E2EEF0E080818460808378940E94B81D54
:1031700008958CE091E00E94851408958091850265
:10318000853031F480918502853019F00E94C31694
:1031900008950E94981680918302882399F30E94D3
:1031A0005616882379F30E943A190E94AD05EACF9A
:1031B00008959A0140918C0250918D020E94E1186D
:1031C0000895AC01CB01D901252F332723303105D8
:1031D000E1F058F421303105C9F122303105D9F13F
:1031E00080E090E020E030E01EC02132310521F186
:1031F00022323105A9F7892BC1F16130710581F7C0
:1032000086EB90E02DE231E00EC0CA0199274130F3
:1032100069F08230910569F0ECEDF0E0892B01F75F
:10322000849190E09F012D933C930895E8ECF0E0A9
:10323000F7CFECEBF0E0F4CF892B91F06130710522
:1032400079F689E090E02BE031E0EDCF82E190E08B
:103250002BE131E0E8CF8BE390E020EE30E0E3CFEC
:1032600089E090E022EF30E0DECF84E490E023EECE
:1032700031E0D9CF80E189BD82E189BD09B400FE8A
:10328000FDCF8091D8008F7D8093D8008091E000A1
:1032900082608093E0008091E00081FDFCCF089582
:1032A000AF92BF92CF92DF92FF920F931F93CF9373
:1032B000DF936C01EB018A010E94A71AF82E81119D
:1032C00023C00115110539F0F80180819181C81BD7
:1032D000D90BC80ED91EA12CB12C2097A9F0809132
:1032E000E80085FD22C08091E8008E778093E80099
:1032F00001151105A1F0F801808191818A0D9B1DB6
:103300009183808385E0F82E8F2DDF91CF911F91DF
:103310000F91FF90DF90CF90BF90AF9008950E94E3
:10332000A71A8823E1F2F82EEFCFF60181916F0101
:103330008093F1002197FFEFAF1ABF0ACECFFC01B7
:103340009B0180918C0290918D028617970718F04F
:10335000672B61F0C90140E0009771F441110CC086
:103360008091E80082FF35C080E008958091E800F8
:103370008E778093E800EECF209185022223A9F179
:103380002530A9F12091E80023FD2DC02091E8000F
:1033900022FDE6CF2091E80020FFDECF3091F30040
:1033A0002091F200009719F02830310558F041E0E3
:1033B0002830310509F040E02091E8002E77209375
:1033C000E800CACF41914093F10001972F5F3F4F32
:1033D000E9CF80918502882341F0853041F08091CA
:1033E000E80083FFBDCF81E0089582E0089583E087
:1033F0000895FC019B0180918C0290918D028617AB
:10340000970718F0672B61F0C90140E0009771F44D
:1034100041110CC08091E80082FF36C080E0089521
:103420008091E8008E778093E800EECF20918502AE
:103430002223B1F12530B1F12091E80023FD2EC007
:103440002091E80022FDE6CF2091E80020FFDECFAA
:103450003091F3002091F200009719F028303105E7
:1034600058F041E02830310509F040E02091E800B3
:103470002E772093E800CACF44914093F100319613
:1034800001972F5F3F4FE8CF80918502882341F05D
:10349000853041F08091E80083FFBCCF81E0089542
:1034A00082E0089583E00895982F973028F08F7078
:1034B0008093E90081E008959093E900242F762F0E
:1034C00050E0981731F07091EC002091ED00509190
:1034D000F00021FD02C09F5FE8CF3091EB003E7FFE
:1034E0003093EB003091ED003D7F3093ED00309153
:1034F000EB0031603093EB007093EC002093ED0013
:103500005093F0002091EE0027FDE5CF80E0089574
:103510008091860287FF13C08091E80082FF06C079
:103520008091E8008B778093E80004C08091850249
:103530008111F2CF0895809185028823D9F380917B
:10354000E80080FFF8CF8091E8008E77ECCF2091E3
:10355000E4003091E50095E6A9018091EC008170CE
:10356000882331F08091E80080FF06C080E0089554
:103570002091E80022FD1BC080918502882391F0F4
:10358000853091F08091EB0085FD10C02091E40022
:103590003091E5004217530701F391509111DCCFB0
:1035A00084E0089582E0089583E0089581E008951D
:1035B0000E94471B0E944F1BE0EEF0E0808181607B
:1035C0008083E8EDF0E080818F77808319BCA7EDE0
:1035D000B0E08C918E7F8C9380818F7E808310925F
:1035E000840208950F931F93CF93DF930E94471B8C
:1035F0000E944F1BC8EDD0E088818F778883888137
:103600008068888388818F7D888319BC10928502A9
:1036100010928102109283021092820200EE10E05A
:10362000F80180818B7F808388818160888342E07C
:1036300060E080E00E94541AE1EEF0E080818E7F2D
:103640008083E2EEF0E08081816080838081886009
:103650008083F80180818E7F808388818061888368
:10366000DF91CF911F910F910895E8EDF0E08081F7
:103670008F7E8083E7EDF0E080818160808384E04D
:1036800082BF81E0809384020E94F21A0895E8EDDF
:10369000F0E080818E7F80831092E2000895109286
:1036A000DA001092E10008951F920F920FB60F9268
:1036B00011242F933F934F935F936F937F938F9337
:1036C0009F93AF93BF93EF93FF938091E10082FFAD
:1036D0000BC08091E20082FF07C08091E1008B7FE8
:1036E0008093E1000E94B71D8091DA0080FF19C02D
:1036F0008091D80080FF15C08091DA008E7F809382
:10370000DA008091D90080FF94C080E189BD82E118
:1037100089BD09B400FEFDCF81E0809385020E943F
:103720009C178091E10080FF19C08091E20080FF2A
:1037300015C08091E2008E7F8093E2008091E200CC
:1037400080618093E2008091D80080628093D800ED
:1037500019BC85E0809385020E94B0178091E1003A
:1037600084FF29C08091E20084FF25C080E189BDEB
:1037700082E189BD09B400FEFDCF8091D8008F7D24
:103780008093D8008091E1008F7E8093E10080914A
:10379000E2008F7E8093E2008091E200816080935E
:1037A000E20080918102882309F449C084E080937B
:1037B00085020E94B9178091E10083FF29C08091A2
:1037C000E20083FF25C08091E100877F8093E100C4
:1037D00082E080938502109281028091E1008E7FC9
:1037E0008093E1008091E2008E7F8093E2008091DF
:1037F000E20080618093E20042E060E080E00E94AD
:10380000541A8091F00088608093F0000E94AD17F8
:10381000FF91EF91BF91AF919F918F917F916F91A8
:103820005F914F913F912F910F900FBE0F901F907E
:10383000189519BC109285020E94AA1772CF809128
:10384000E30087FF02C083E0B2CF81E0B0CF1F92D8
:103850000F920FB60F921124FF920F931F932F9385
:103860003F934F935F936F937F938F939F93AF9308
:10387000BF93CF93DF93EF93FF9309EE10E0F8012E
:103880008081C091EC00C795CC27C7958F70FC2E26
:10389000F82A1082C0EFD0E08881877F88837894EF
:1038A0000E94701CF8011082888188608883CF2D67
:1038B000CF70C083FF91EF91DF91CF91BF91AF9116
:1038C0009F918F917F916F915F914F913F912F9138
:1038D0001F910F91FF900F900FBE0F901F901895A2
:1038E000AAE2B0E0E6E7FCE10C94FB1D86E892E07A
:1038F000FC0101962091F100208322E08E3892078E
:10390000B9F70E94D9178091E80083FF38C08091F1
:103910008602909187029A3090F5E92FF0E0E85105
:10392000F14E0C94E61D803889F0823841F5809183
:103930008A028F70873018F58093E9008091EB0040
:1039400085FB882780F91092E90006C080918202E9
:1039500090918302911182609091E800977F9093FB
:10396000E8008093F1001092F1008091E8008E77DA
:1039700023C0811116C080918802813011F180919D
:10398000E80083FF0AC08091E800877F8093E80009
:103990008091EB0080628093EB00AA96E3E00C94A8
:1039A000171E823061F780918802882389F0109277
:1039B000E9008091E800877F8093E8000E94881AE0
:1039C000DECF81E0933009F080E080938302EFCF77
:1039D00080918A028F702FEF280F263080F6809317
:1039E000E9002091EB0020FFE2CF933031F4809189
:1039F000EB0080628093EB00DACF9091EB00906156
:103A00009093EB0021E030E0A90102C0440F551F64
:103A10008A95E2F74093EA001092EA008091EB0069
:103A20008860E8CF8111ABCF109188021F77809119
:103A3000E3008078812B8093E3008091E800877F0A
:103A40008093E8000E94881A8091E80080FFFCCFF4
:103A50008091E30080688093E30083E0111101C04E
:103A600082E0809385028BCF8058823008F087CF28
:103A700080918802909189028C3D53E0950799F5D9
:103A800083E08A838AE289834FB7F894DE01139634
:103A900020E03EE051E2E32FF0E0509357008491A4
:103AA00020FF03C082958F703F5F8F708A30C8F00F
:103AB000895C90E08D939D932F5F243161F74FBF18
:103AC0008091E800877F8093E8006AE270E0CE0191
:103AD00001960E949F198091E8008B778093E800FF
:103AE0004ECF805DE6CF60918A0270918B02AE016D
:103AF0004F5F5F4F0E94D918BC01892B09F43FCF5B
:103B00008091E800877F8093E80089819A810E94F4
:103B1000F919E1CF803809F032CF8091E800877F32
:103B20008093E800809181028093F1001ECF811183
:103B300026CF90918802923008F021CF8091E80042
:103B4000877F8093E800909381020E94881A809179
:103B50008102882331F084E0809385020E94C4179B
:103B60000ECF8091E30087FDF6CF81E0F5CF089579
:103B7000CF9380918502882399F08091E900C091CC
:103B8000EC00C795CC27C7958F70C82B1092E90021
:103B90008091E80083FD0E94701CCF70C093E90003
:103BA000CF91089597FB072E16F4009407D077FD68
:103BB00009D00E94231E07FC05D03EF49095819504
:103BC0009F4F0895709561957F4F0895EE0FFF1FE9
:103BD0000590F491E02D09942F923F924F925F92BD
:103BE0006F927F928F929F92AF92BF92CF92DF920D
:103BF000EF92FF920F931F93CF93DF93CDB7DEB772
:103C0000CA1BDB0B0FB6F894DEBF0FBECDBF099405
:103C10002A88398848885F846E847D848C849B845C
:103C2000AA84B984C884DF80EE80FD800C811B816A
:103C3000AA81B981CE0FD11D0FB6F894DEBF0FBE99
:103C4000CDBFED010895AA1BBB1B51E107C0AA1F00
:103C5000BB1FA617B70710F0A61BB70B881F991F2D
:103C60005A95A9F780959095BC01CD010895FB0167
:103C7000DC0104C08D910190801921F44150504025
:103C8000C8F7881B990B0895FB01DC0102C0019065
:103C90000D9241505040D8F70895F999FECF92BD4A
:103CA00081BDF89A992780B50895A8E1B0E042E077
:103CB00050E00C94911EDC01A40FB51F4150504000
:103CC00048F0CB01840F951F2E910E946C1E41502D
:103CD0005040D0F70895262FF999FECF92BD81BDAF
:103CE000F89A019700B4021639F01FBA20BD0FB63A
:103CF000F894FA9AF99A0FBE08950396272F0E9416
:103D00006C1E0E946B1E252F0E946C1E242F0C948B
:103D10006C1E0196272F0E946C1E0C946B1EDC01FA
:103D2000CB01FC01F999FECF06C0F2BDE1BDF89AC6
:103D3000319600B40D9241505040B8F70895F89470
:103D4000FFCF99039903E003E00345046204C8032D
:103D5000C8036704DE04EF04EF04BB102F11C31087
:103D60008D109110C7109510CB10D710A1102811ED
:103D7000A510DB10A910DF100711AD10E3100E1114
:103D8000B310E910F1109910CF109D10D310B71097
:103D9000ED10FD10171126118710BF103611F51107
:103DA000F811FE111312131213121312131213121D
:103DB00013121312011206120A12101221122712E4
:103DC0002B126014661450145A146C147214781464
:103DD000931CB91CBF1CB91CBF1C121D341DBF1C79
:043DE0008A1D971D84
:103DE40008022802280850011E0A140149178517E1
:103DF4007E177717701701E200E900EA00B500B6F4
:103E040000B700CD008301CC008A01920194012106
:103E140002230224022502260227022A02B300B446
:103E2400006F0070009F01CB019F02A002E200E935
:103E340000EA00B500B600B700CD008301CC008ACB
:103E44000192019401210223022402250226022761
:103E5400022A02B300B4006F0070009F01CB019FDF
:0C3E640002A002F4F5F6F731333236000C
:00000001FF
